:100000000C94B4000C94D1000C94D1000C94D10049
:100010000C94D1000C94D1000C94D1000C94D1001C
:100020000C94D1000C94E3010C94D1000C940304C3
:100030000C94D1000C94D1000C94D1000C94D100FC
:100040000C94D1000C94D1000C9477010C94010213
:100050000C9401020C94D1000C94D1000C94D100AA
:100060000C94D1000C94D10000070E091C1B121532
:10007000383F363124232A2D70777E796C6B626588
:10008000484F464154535A5DE0E7EEE9FCFBF2F578
:10009000D8DFD6D1C4C3CACD90979E998C8B828568
:1000A000A8AFA6A1B4B3BABDC7C0C9CEDBDCD5D258
:1000B000FFF8F1F6E3E4EDEAB7B0B9BEABACA5A248
:1000C0008F88818693949D9A2720292E3B3C353238
:1000D0001F18111603040D0A5750595E4B4C454228
:1000E0006F68616673747D7A898E878095929B9C18
:1000F000B1B6BFB8ADAAA3A4F9FEF7F0E5E2EBEC08
:10010000C1C6CFC8DDDAD3D4696E676075727B7CF7
:1001100051565F584D4A4344191E171005020B0CE7
:1001200021262F283D3A33344E49404752555C5BD7
:100130007671787F6A6D64633E39303722252C2BC7
:100140000601080F1A1D1413AEA9A0A7B2B5BCBBB7
:100150009691989F8A8D8483DED9D0D7C2C5CCCBA7
:10016000E6E1E8EFFAFDF4F311241FBECFEFD8E08B
:10017000DEBFCDBF11E0A0E0B1E0E8EFFCE002C0DF
:1001800005900D92AC34B107D9F713E0ACE4B1E0BF
:1001900001C01D92AF38B107E1F70E9494030C949F
:1001A0007A060C94000014BE88E10FB6F894809390
:1001B0006000109260000FBE85E290E090934D01C8
:1001C00080934C0184E290E090934F0180934E0124
:1001D00083E290E0909351018093500180E28093FC
:1001E00052018BE290E090935B0180935A018AE286
:1001F00090E090935D0180935C0182E080935E01CA
:1002000081E080935F0189E090E09093C500809346
:10021000C40088E98093C10086E08093C2001092F8
:10022000B00084E08093B1001092700080E090E014
:100230000E9460068093650181E090E00E94600664
:100240008093660182E090E06AEA0E94680680E09E
:1002500091E0909368018093670184E28093690143
:100260000E94A103E0914E01F0914F018081909195
:100270005201892B8083E0914C01F0914D019081D6
:1002800080915201809589238083E0915C01F091F7
:100290005D01808190915E01892B8083E0915C01FA
:1002A000F0915D01908180915F0180958923808329
:1002B000E0915501F091560190818091590180950E
:1002C00089238083E0916201F091630180819091A4
:1002D0006401892B8083E0916001F091610190813C
:1002E00080916401809589238083789408951F927A
:1002F0000F920FB60F9211248F939F93EF93FF935A
:100300001092B20010926A0381E080937000909185
:10031000C60090936B0380916803E82FF0E0E759E3
:10032000FD4F9083F69A843019F490936C0302C0C9
:10033000843020F090916C03891778F4E0916D037C
:1003400090916B03E927F0E0E859FF4FE491E093C7
:100350006D038F5F809368032DC0809169028A3896
:1003600049F490916D0380916B03981719F41092E2
:100370007000F79A809169028834A9F490916D0316
:1003800080916B03981779F490916A0280916501CE
:10039000981749F490916B0280916601981719F4AF
:1003A00010927000F79A10927000F69810926803FD
:1003B00010926D03FF91EF919F918F910F900FBE5F
:1003C0000F901F9018951F920F920FB60F92112445
:1003D0008F9380916A03813059F410926A031092CE
:1003E000680310926D03F698F7981092700003C09E
:1003F0008F5F80936A038F910F900FBE0F901F90B5
:1004000018951F920F920FB60F9211248F939F93FE
:10041000EF93FF9380E48093C00088E58093C10050
:10042000F59A8091690390916F03891798F4E82FEA
:10043000F0E0E659FE4F908190936E039093C600D2
:10044000E0917003E927F0E0E859FF4FE491E09371
:10045000700306C0891741F4909170039093C60011
:100460008F5F8093690312C088E98093C100F5987B
:100470001092690310927003E0916001F0916101A4
:10048000908180916401809589238083FF91EF9111
:100490009F918F910F900FBE0F901F901895109203
:1004A00069031092700380916E0180936F038091B5
:1004B000650180936B018091660180936C01E091EE
:1004C0006001F0916101808190916401892B8083AA
:1004D00088E38093C100089598E490936A01809323
:1004E0006D016B5F60936E010E944F0208959AE860
:1004F00090936A0180936D016B5F60936E010E941F
:100500004F020895E0914C01F0914D01808190914E
:100510005201892B808380E693EEA6E1B0E026E0CD
:100520002A95F1F700000197A109B109C1F7E091FF
:100530004C01F0914D019081809152018095892369
:100540008083089560916901A0916701B09168016D
:10055000EFE6F1E0862F90E08E0F9F1F02C02D91F5
:100560002193E817F907D9F785E00E946C020895F6
:10057000DF93CF9300D000D00F92CDB7DEB780913C
:1005800069028A3809F051C01A821B821C821D82BE
:100590001982E0914C01F0914D01808190915201BE
:1005A000892B808338C08A819B81AC81BD81019673
:1005B000A11DB11D8A839B83AC83BD838A819B81EE
:1005C000AC81BD81803221EA920727E0A20720E0BA
:1005D000B20781F4E0915001F09151018081909136
:1005E0005201892B808389818F5F89831A821B82C4
:1005F0001C821D8289818F3011F0F79B0CC0E09125
:100600004C01F0914D019081809152018095892398
:100610008083F7983CC0E0915701F09158018081A8
:1006200090915901892309F0BECF60916E026093C9
:10063000650180916F028093660180E090E00E94E6
:10064000680681E090E0609166010E946806A091D2
:100650006701B0916801EFE6F1E08091690190E0F7
:100660008E0F9F1F02C02D912193E817F907D9F72C
:10067000E0914C01F0914D01908180915201809563
:100680008923808386E0609169010E9477020F9040
:100690000F900F900F900F90CF91DF91089581E40C
:1006A00080936F0182E090E00E9460068093700169
:1006B00081E062E00E946C020895F89428E088E1ED
:1006C00090E00FB6F894A895809360000FBE209339
:1006D0006000FFCFF79B22C0F79880916C028630B4
:1006E00091F0873028F4813041F08530A9F408C0BA
:1006F000873061F08F3F81F40CC00E944F03089552
:100700000E94A20208950E94B80208950E948202E7
:1007100008950E945D0308950E943E0608950E9478
:100720006A030E94020408950E94D3000E948F036E
:10073000FDCF9093680180936701615060936901D8
:10074000089585E291E066E20E94990345E250E057
:1007500050934D0140934C0124E230E030934F011F
:1007600020934E0183E290E09093510180935001D9
:1007700068E06093520150935401409353013093C9
:10078000560120935501909358018093570154E0EE
:10079000509359012BE230E030935B0120935A01D2
:1007A0008AE290E090935D0180935C0141E0409388
:1007B0005F0142E040935E0130936101209360014C
:1007C00090936301809362015093640187E4809366
:1007D0007C0087E880937A0087B18F6387B988B1FE
:1007E000846288B941981092800089E080938100EA
:1007F00089E993E0909389008093880040936F008B
:100800007894089508951F920F920FB60F921124B5
:100810002F933F934F935F938F939F93AF93BF9388
:100820008091790390917A03009709F409C180912E
:100830007F03813079F48091830390918403A091A8
:100840008503B091860320918203820F911DA11D23
:10085000B11D12C0809180038130B9F4809183036F
:1008600090918403A0918503B09186032091820327
:10087000821B9109A109B10980938303909384039A
:10088000A0938503B09386030EC020917903309125
:100890007A0380917D0390917E038217930718F06D
:1008A00081E08093800320918B0330918C034091F1
:1008B0008D0350918E038091830390918403A091C6
:1008C0008503B0918603820F931FA41FB51F8093E9
:1008D0008B0390938C03A0938D03B0938E03809130
:1008E0008B0390918C03A0918D03B0918E03813086
:1008F00020E0920720E1A20720E0B20708F489C0B7
:1009000020917503309176034091770350917803DD
:100910008091710390917203A0E0B0E0820F931F69
:10092000A41FB51F8093750390937603A09377035C
:10093000B09378032091750330917603409177034B
:100940005091780380917B0390917C03A0E0B0E00C
:1009500082179307A407B507ECF4409A80917503BA
:1009600090917603A0917703B091780320917B0357
:1009700030917C03220F331F40E050E0821B930B29
:10098000A40BB50B8093750390937603A093770324
:10099000B09378038091790390917A0301979093B3
:1009A0007A038093790340917F034130C9F48091A9
:1009B0007D0390917E03019690937E0380937D0347
:1009C0002091790330917A0380917B0390917C038D
:1009D0002817390749F410927F034093800304C01D
:1009E00086E08A95F1F70000409880918B03909102
:1009F0008C03A0918D03B0918E0380509040A04154
:100A0000B04080938B0390938C03A0938D03B0939D
:100A10008E0320918303309184034091850350918C
:100A200086038091870390918803A0918903B091F8
:100A30008A03281739074A075B0710F010927F03D3
:100A4000BF91AF919F918F915F914F913F912F9166
:100A50000F900FBE0F901F90189545980895459AD6
:100A60000895419A08954198089580917A0080648C
:100A700080937A0080917A0086FDFCCF8091780087
:100A80009091790080936F019093700184E162E00E
:100A90000E946C0208950E942D058AE060E00E9489
:100AA0006C0208950E942F058BE060E00E946C02AA
:100AB000089580916E02809381039091700280E08E
:100AC00090937403809373038091730390917403E4
:100AD00020916F02820F911D909374038093730392
:100AE0008CE060E00E946C0208950E942D058091C8
:100AF000700290E0A0E0B0E0FAE0880F991FAA1F12
:100B0000BB1FFA95D1F78093830390938403A0933E
:100B10008503B09386032091830330918403409131
:100B20008503509186038091710290E0A0E0B0E0CF
:100B3000E2E1880F991FAA1FBB1FEA95D1F7820F28
:100B4000931FA41FB51F8093830390938403A093E6
:100B50008503B09386038091720290E0A0E0B0E03C
:100B60007AE0880F991FAA1FBB1F7A95D1F780934F
:100B7000870390938803A0938903B0938A032091FD
:100B80008703309188034091890350918A038091B3
:100B9000730290E0A0E0B0E062E1880F991FAA1F05
:100BA000BB1F6A95D1F7820F931FA41FB51F8093B7
:100BB000870390938803A0938903B0938A0380915D
:100BC00074028093820310928B0310928C03109214
:100BD0008D0310928E0381E080937F031092800337
:100BE00010927E0310927D0310927503109276038B
:100BF000109277031092780380917303909174039D
:100C0000909372038093710380918103882319F07C
:100C10000E94310502C00E943305F89490916F0242
:100C200080E090937A038093790380917903909187
:100C30007A0320916E02820F911D90937A03809324
:100C400079038091790390917A0396958795909393
:100C50007C0380937B03789408958091790390912D
:100C60007A0380936F018091790390917A03909336
:100C700070018FE062E00E946C0208958C30B9F040
:100C80008D3028F48A3069F08B30C9F40DC08F3074
:100C9000A1F0843119F08D3091F40CC00E9435051B
:100CA00008950E944B0508950E94520508950E94E0
:100CB000590508950E94750508950E942D0608950E
:100CC000F999FECF92BD81BDF89A992780B5089514
:100CD000262FF999FECF92BD81BDF89A019700B4F5
:100CE000021639F01FBA20BD0FB6F894FA9AF99A95
:080CF0000FBE0895F894FFCF38
:100CF800687474703A2F2F74712E6D69742E656440
:100D0800752F67657374616C742F3038362D3030E9
:100D1800302E707900687474703A2F2F7777772E99
:100D2800666162756E69742E636F6D2F766E2F30F3
:0C0D380038362D303035612E7079000007
:00000001FF
