:107000000C94B4380C94D1380C94D1380C94D138F9
:107010000C94D1380C94D1380C94D1380C94D138CC
:107020000C94D1380C94E4390C94D1380C94D138A8
:107030000C94D1380C94D1380C94D1380C94D138AC
:107040000C94D1380C94D1380C9478390C94023AC1
:107050000C94023A0C94D1380C94D1380C94D13859
:107060000C94D1380C94D13800070E091C1B121552
:10707000383F363124232A2D70777E796C6B626518
:10708000484F464154535A5DE0E7EEE9FCFBF2F508
:10709000D8DFD6D1C4C3CACD90979E998C8B8285F8
:1070A000A8AFA6A1B4B3BABDC7C0C9CEDBDCD5D2E8
:1070B000FFF8F1F6E3E4EDEAB7B0B9BEABACA5A2D8
:1070C0008F88818693949D9A2720292E3B3C3532C8
:1070D0001F18111603040D0A5750595E4B4C4542B8
:1070E0006F68616673747D7A898E878095929B9CA8
:1070F000B1B6BFB8ADAAA3A4F9FEF7F0E5E2EBEC98
:10710000C1C6CFC8DDDAD3D4696E676075727B7C87
:1071100051565F584D4A4344191E171005020B0C77
:1071200021262F283D3A33344E49404752555C5B67
:107130007671787F6A6D64633E39303722252C2B57
:107140000601080F1A1D1413AEA9A0A7B2B5BCBB47
:107150009691989F8A8D8483DED9D0D7C2C5CCCB37
:10716000E6E1E8EFFAFDF4F311241FBECFEFD8E01B
:10717000DEBFCDBF11E0A0E0B1E0ECEAF9E702C06C
:1071800005900D92A035B107D9F713E0A0E5B1E065
:1071900001C01D92A737B107E1F70E94663C0C942D
:1071A000D43C0C940038CF93DF9314BE88E10FB623
:1071B000F89480936000109260000FBE85E290E02A
:1071C000909351018093500184E290E09093530199
:1071D0008093520183E290E0909355018093540193
:1071E00080E2809356018BE290E090935F01809360
:1071F0005E018AE290E09093610180936001C2E0B9
:10720000C0936201D1E0D093630189E090E0909354
:10721000C5008093C40088E98093C10086E0809314
:10722000C2001092B00084E08093B1001092700010
:1072300080E090E00E94BA3C8093690181E090E098
:107240000E94BA3C80936A01D5BFC5BF80E091E03F
:1072500090936C0180936B0184E280936D010E9496
:10726000733CE0915201F09153018081909156015D
:10727000892B8083E0915001F091510190818091A0
:107280005601809589238083E0916001F09161012E
:10729000808190916201892B8083E0916001F0915F
:1072A0006101908180916301809589238083E091C1
:1072B0005901F0915A01908180915D018095892357
:1072C0008083E0916601F09167018081909168016F
:1072D000892B8083E0916401F09165019081809118
:1072E00068018095892380837894DF91CF910895F8
:1072F0001F920F920FB60F9211248F939F93EF93CB
:10730000FF931092B2001092700381E0809370009E
:107310009091C6009093710380916E03E82FF0E086
:10732000E159FD4F9083F69A843019F490937203DB
:1073300002C0843020F090917203891778F4E091B4
:10734000730390917103E927F0E0E859FF48E49155
:10735000E09373038F5F80936E032DC080916F0263
:107360008A3849F49091730380917103981719F446
:1073700010927000F79A80916F028834A9F490916E
:10738000730380917103981779F490917002809142
:107390006901981749F49091710280916A019817D8
:1073A00019F410927000F79A10927000F6981092EB
:1073B0006E0310927303FF91EF919F918F910F9045
:1073C0000FBE0F901F9018951F920F920FB60F923D
:1073D00011248F9380917003813059F410927003BF
:1073E00010926E0310927303F698F7981092700043
:1073F00003C08F5F809370038F910F900FBE0F902B
:107400001F9018951F920F920FB60F9211248F9311
:107410009F93EF93FF9380E48093C00088E580936F
:10742000C100F59A80916F0390917503891798F4C4
:10743000E82FF0E0E059FE4F908190937403909311
:10744000C600E0917603E927F0E0E859FF48E491AF
:10745000E093760306C0891741F4909176039093E8
:10746000C6008F5F80936F0312C088E98093C100CC
:10747000F59810926F0310927603E0916401F091F9
:107480006501908180916801809589238083FF91B7
:10749000EF919F918F910F900FBE0F901F901895B5
:1074A00010926F031092760380917401809375039C
:1074B000809169018093710180916A0180937201CA
:1074C000E0916401F0916501808190916801892BC0
:1074D000808388E38093C100089598E490937001BD
:1074E000809373016B5F609374010E94503A08951A
:1074F0009AE890937001809373016B5F60937401BD
:107500000E94503A0895E0915001F091510180811C
:1075100090915601892B808380E693EEA6E1B0E03E
:1075200026E02A95F1F700000197A109B109C1F7FA
:10753000E0915001F0915101908180915601809528
:1075400089238083089560916D01A0916B01B091B2
:107550006C01E5E7F1E0862F90E08E0F9F1F02C0DF
:107560002D912193E817F907D9F785E00E946D3A2C
:107570000895DF93CF9300D000D00F92CDB7DEB740
:1075800080916F028A3809F051C01A821B821C82D6
:107590001D821982E0915001F091510180819091FA
:1075A0005601892B808338C08A819B81AC81BD8143
:1075B0000196A11DB11D8A839B83AC83BD838A8103
:1075C0009B81AC81BD81803221EA920727E0A2072E
:1075D00020E0B20781F4E0915401F09155018081DF
:1075E00090915601892B808389818F5F89831A82CC
:1075F0001B821C821D8289818F3011F0F79B0CC089
:10760000E0915001F0915101908180915601809557
:1076100089238083F7983CC0E0915B01F0915C0185
:10762000808190915D01892309F0BECF6091740241
:10763000609369018091750280936A0180E090E017
:107640000E94C23C81E090E060916A010E94C23CCD
:10765000A0916B01B0916C01E5E7F1E080916D01C3
:1076600090E08E0F9F1F02C02D912193E817F9071C
:10767000D9F7E0915001F09151019081809156012C
:1076800080958923808386E060916D010E94783A1D
:107690000F900F900F900F900F90CF91DF91089562
:1076A00082E48093750182E090E00E94BA3C80936E
:1076B000760181E062E00E946D3A0895F89428E036
:1076C00088E190E00FB6F894A895809360000FBE13
:1076D00020936000FFCFF39A10926F0110926E0119
:1076E00082E090E060E00E94C23C08958EB385FD88
:1076F000FDCFF8941092C1001092700081E085BF18
:1077000015BE0C94000008958091740298E4909343
:10771000700192E09093730198E09093740110923D
:10772000760110927701882341F485E080937501FA
:107730000E94503A0E946B3B0895813039F489E0F1
:10774000809375010E94503A0E94763B0895CF9332
:10775000DF936FB7F894F999FECF07B600FCFDCF21
:10776000F999FECF80916E0190916F0143E0FC0189
:1077700040935700E89507B600FCFDCFA7E7B2E0BD
:10778000FC0171E04C9111963C91119720E0E901C8
:10779000C40FD11DAE0107B600FCFDCFF999FECF95
:1077A0000A0170935700E895112412963296D2E0A0
:1077B000A73FBD0739F707B600FCFDCFF999FECF0B
:1077C00025E0FC0120935700E89507B600FCFDCFAB
:1077D00081E180935700E8956FBF80916E01909191
:1077E0006F0180589F4F90936F0180936E01DF91DE
:1077F000CF91089588E48093700183E080937301B2
:1078000088E08093740181E08093750190916E010E
:1078100080916F0190937601809377010E94A73B3E
:107820000E94503A089588E48093700184E0809328
:10783000730185E88093740180917402F091750260
:10784000E0E0E80FF11DA5E7B1E084918D9331965A
:1078500081E0A53FB807C9F70E94503A0895F79B09
:1078600031C0F79880917202843039F1853038F454
:107870008230E9F08330F0F4813011F509C08630B0
:1078800069F0863040F0873061F08F3FC9F40CC05A
:107890000E94503B08950E94A33A08950E94B93A6D
:1078A00008950E94833A08950E945E3B08950E94C5
:1078B000843B08950E94FA3B08950E94133C08956A
:1078C0000E94B93C08950E942F3C08950E94D3382D
:1078D0000E942F3CFDCF90936C0180936B0161500F
:1078E00060936D01089585E291E06BE20E946B3C2C
:1078F00045E250E0509351014093500124E230E0C2
:10790000309353012093520183E290E0909355010C
:107910008093540168E0609356015093580140935E
:10792000570130935A012093590190935C01809341
:107930005B0144E040935D012BE230E030935F0156
:1079400020935E018AE290E0909361018093600150
:1079500051E05093630152E050936201309365010E
:1079600020936401909367018093660140936801BE
:1079700008950895F999FECF92BD81BDF89A99278F
:1079800080B50895262FF999FECF92BD81BDF89A52
:10799000019700B4021639F01FBA20BD0FB6F89453
:0C79A000FA9AF99A0FBE0895F894FFCFF0
:1079AC00687474703A2F2F74712E6D69742E65641F
:1079BC00752F67657374616C742F3038362D3030C9
:1079CC00302E707900687474703A2F2F7777772E79
:1079DC00666162756E69742E636F6D2F766E2F30D3
:1079EC0038362D303035615F626F6F742E707900D0
:040000030000700089
:00000001FF
