:100000000C94B4000C94D1000C94D1000C94D10049
:100010000C94D1000C94D1000C94D1000C94D1001C
:100020000C94D1000C94E3010C94D1000C940B04BB
:100030000C94D1000C94D1000C94D1000C94D100FC
:100040000C94D1000C94D1000C9477010C94010213
:100050000C9401020C94D1000C94D1000C94D100AA
:100060000C94D1000C94D10000070E091C1B121532
:10007000383F363124232A2D70777E796C6B626588
:10008000484F464154535A5DE0E7EEE9FCFBF2F578
:10009000D8DFD6D1C4C3CACD90979E998C8B828568
:1000A000A8AFA6A1B4B3BABDC7C0C9CEDBDCD5D258
:1000B000FFF8F1F6E3E4EDEAB7B0B9BEABACA5A248
:1000C0008F88818693949D9A2720292E3B3C353238
:1000D0001F18111603040D0A5750595E4B4C454228
:1000E0006F68616673747D7A898E878095929B9C18
:1000F000B1B6BFB8ADAAA3A4F9FEF7F0E5E2EBEC08
:10010000C1C6CFC8DDDAD3D4696E676075727B7CF7
:1001100051565F584D4A4344191E171005020B0CE7
:1001200021262F283D3A33344E49404752555C5BD7
:100130007671787F6A6D64633E39303722252C2BC7
:100140000601080F1A1D1413AEA9A0A7B2B5BCBBB7
:100150009691989F8A8D8483DED9D0D7C2C5CCCBA7
:10016000E6E1E8EFFAFDF4F311241FBECFEFD8E08B
:10017000DEBFCDBF11E0A0E0B1E0E8EFFEE002C0DD
:1001800005900D92AE34B107D9F715E0AEE4B1E0B9
:1001900001C01D92AF38B107E1F70E9494030C949F
:1001A0007A070C94000014BE88E10FB6F89480938F
:1001B0006000109260000FBE85E290E090934F01C6
:1001C00080934E0184E290E090935101809350011E
:1001D00083E290E0909353018093520180E28093F8
:1001E00054018BE290E090935D0180935C018AE280
:1001F00090E090935F0180935E0182E080936001C4
:1002000081E08093610189E090E09093C500809344
:10021000C40088E98093C10086E08093C2001092F8
:10022000B00084E08093B1001092700080E090E014
:100230000E9452078093670181E090E00E9452077C
:100240008093680182E090E06AEA0E946C0780E097
:1002500091E090936A018093690184E280936B013D
:100260000E94A103E0915001F09151018081909191
:100270005401892B8083E0914E01F0914F019081D0
:1002800080915401809589238083E0915E01F091F3
:100290005F01808190916001892B8083E0915E01F4
:1002A000F0915F0190818091610180958923808325
:1002B000E0915701F0915801908180915B01809508
:1002C00089238083E0916401F091650180819091A0
:1002D0006601892B8083E0916201F0916301908136
:1002E00080916601809589238083789408951F9278
:1002F0000F920FB60F9211248F939F93EF93FF935A
:100300001092B20010926C0381E080937000909183
:10031000C60090936D0380916A03E82FF0E0E559E1
:10032000FD4F9083F69A843019F490936E0302C0C7
:10033000843020F090916E03891778F4E0916F0378
:1003400090916D03E927F0E0E859FF4FE491E093C5
:100350006F038F5F80936A032DC080916B028A3890
:1003600049F490916F0380916D03981719F41092DE
:100370007000F79A80916B028834A9F490916F0312
:1003800080916D03981779F490916C0280916701C8
:10039000981749F490916D0280916801981719F4AB
:1003A00010927000F79A10927000F69810926A03FB
:1003B00010926F03FF91EF919F918F910F900FBE5D
:1003C0000F901F9018951F920F920FB60F92112445
:1003D0008F9380916C03813059F410926C031092CA
:1003E0006A0310926F03F698F7981092700003C09A
:1003F0008F5F80936C038F910F900FBE0F901F90B3
:1004000018951F920F920FB60F9211248F939F93FE
:10041000EF93FF9380E48093C00088E58093C10050
:10042000F59A80916B0390917103891798F4E82FE6
:10043000F0E0E459FE4F9081909370039093C600D2
:10044000E0917203E927F0E0E859FF4FE491E0936F
:10045000720306C0891741F4909172039093C6000D
:100460008F5F80936B0312C088E98093C100F59879
:1004700010926B0310927203E0916201F09163019C
:10048000908180916601809589238083FF91EF910F
:100490009F918F910F900FBE0F901F901895109203
:1004A0006B031092720380917001809371038091AD
:1004B000670180936D018091680180936E01E091E6
:1004C0006201F0916301808190916601892B8083A4
:1004D00088E38093C100089598E490936C01809321
:1004E0006F016B5F609370010E944F0208959AE85C
:1004F00090936C0180936F016B5F609370010E9419
:100500004F020895E0914E01F0914F01808190914A
:100510005401892B808380E693EEA6E1B0E026E0CB
:100520002A95F1F700000197A109B109C1F7E091FF
:100530004E01F0914F019081809154018095892363
:100540008083089560916B01A0916901B0916A0167
:10055000E1E7F1E0862F90E08E0F9F1F02C02D9102
:100560002193E817F907D9F785E00E946C020895F6
:10057000DF93CF9300D000D00F92CDB7DEB780913C
:100580006B028A3809F051C01A821B821C821D82BC
:100590001982E0914E01F0914F01808190915401B8
:1005A000892B808338C08A819B81AC81BD81019673
:1005B000A11DB11D8A839B83AC83BD838A819B81EE
:1005C000AC81BD81803221EA920727E0A20720E0BA
:1005D000B20781F4E0915201F09153018081909132
:1005E0005401892B808389818F5F89831A821B82C2
:1005F0001C821D8289818F3011F0F79B0CC0E09125
:100600004E01F0914F019081809154018095892392
:100610008083F7983CC0E0915901F0915A018081A4
:1006200090915B01892309F0BECF609170026093C5
:100630006701809171028093680180E090E00E94E0
:100640005A0781E090E0609168010E945A07A091EA
:100650006901B0916A01E1E7F1E080916B0190E0FE
:100660008E0F9F1F02C02D912193E817F907D9F72C
:10067000E0914E01F0914F0190818091540180955D
:100680008923808386E060916B010E9477020F903E
:100690000F900F900F900F90CF91DF91089581E40C
:1006A0008093710182E090E00E9452078093720172
:1006B00081E062E00E946C020895F89428E088E1ED
:1006C00090E00FB6F894A895809360000FBE209339
:1006D0006000FFCFF79B22C0F79880916E028630B2
:1006E00091F0873028F4813041F08530A9F408C0BA
:1006F000873061F08F3F81F40CC00E944F03089552
:100700000E94A20208950E94B80208950E948202E7
:1007100008950E945D0308950E942B0708950E948A
:100720006A030E94020408950E94D3000E948F036E
:10073000FDCF90936A0180936901615060936B01D2
:10074000089585E291E066E20E94990345E250E057
:1007500050934F0140934E0124E230E03093510119
:100760002093500183E290E09093530180935201D3
:1007700068E06093540150935601409355013093C3
:1007800058012093570190935A018093590154E0E6
:1007900050935B012BE230E030935D0120935C01CC
:1007A0008AE290E090935F0180935E0141E0409384
:1007B000610142E040936001309363012093620144
:1007C00090936501809364015093660187E4809360
:1007D0007C0087E880937A0087B18F6387B988B1FE
:1007E0008C6388B941981092800089E080938100E1
:1007F00089E993E0909389008093880040936F008B
:1008000078940895089545980895459A0895419AD1
:100810000895419808951F920F920FB60F921124D8
:100820002F933F934F935F936F937F938F939F93F8
:10083000AF93BF93EF93FF9380917A0590917B05DF
:10084000009709F4D8C020918005309181058091EE
:1008500076059091770540917A0550917B05841B30
:10086000950B8217930778F4809185059091860502
:10087000A0918705B091880520918405820F911D74
:10088000A11DB11D2BC0209182053091830580915F
:100890007A0590917B0528173907A8F120918505E5
:1008A0003091860540918705509188058091840597
:1008B00090E0A0E0B0E082179307A407B507B8F472
:1008C0008091850590918605A0918705B091880556
:1008D00020918405821B9109A109B10980938505A6
:1008E00090938605A0938705B09388050CC081E09E
:1008F00080938E05E0914E01F0914F01808190919F
:100900005401892B80832091890530918A0540917B
:100910008B0550918C058091850590918605A0915D
:100920008705B0918805820F931FA41FB51F809380
:10093000890590938A05A0938B05B0938C058091CF
:10094000890590918A05A0918B05B0918C05813025
:1009500020E0920720E1A20720E0B20708F44CC192
:1009600080917A0590917B05019790937B05809308
:100970007A058091890590918A05A0918B05B091A7
:100980008C0580509040A041B040809389059093A1
:100990008A05A0938B05B0938C0520917E0530913C
:1009A0007F0580917C0590917D05820F931F909328
:1009B0007F0580937E0520917E0530917F05809193
:1009C000780590917905821793077CF4409A80917D
:1009D0007E0590917F052091760530917705821BE9
:1009E000930B90937F0580937E0586E08A95F1F7BF
:1009F0000000409801C1909174058091730598178B
:100A000009F4FAC080918E058823A1F01092850523
:100A100010928605109287051092880510928E0517
:100A2000E0914E01F0914F019081809154018095A9
:100A300089238083E0917305F0E073E0EE0FFF1FE0
:100A40007A95E1F7E558FC4F8781E0914E01F091EE
:100A50004F01882309F0C8C010928D0590818091C4
:100A600054018095892380830E9403049091750529
:100A700080917305981729F4809175058F5F809395
:100A8000750580917505803411F41092750580917B
:100A900073058F5F8093730580917305803411F423
:100AA00010927305E0917305F0E063E0EE0FFF1F15
:100AB0006A95E1F7ED58FC4F818120914C0190E05F
:100AC00002C0880F991F2A95E2F7909377058093CB
:100AD0007605809176059091770596958795909308
:100AE00079058093780580917605909177059093AC
:100AF0007B0580937A05E0917305F0E043E0EE0F0B
:100B0000FF1F4A95E1F7ED58FC4F828180FF03C03B
:100B10000E94070402C00E940904E0917305F0E0FE
:100B200033E0EE0FFF1F3A95E1F7ED58FC4F83815C
:100B300020914C0190E002C0880F991F2A95E2F79E
:100B400090937D0580937C0510927F0510927E0521
:100B5000E0917305F0E023E0EE0FFF1F2A95E1F727
:100B6000ED58FC4F858120914C0190E002C0880F28
:100B7000991F2A95E2F79093810580938005E09173
:100B80007305F0E093E0EE0FFF1F9A95E1F7ED5843
:100B9000FC4F868120914C0190E002C0880F991F84
:100BA0002A95E2F79093830580938205E09173057F
:100BB000F0E083E0EE0FFF1F8A95E1F7ED58FC4F60
:100BC000848120914C0190E002C0880F991F2A95E2
:100BD000E2F7809384051092890510928A0510929D
:100BE0008B0510928C0508C081E080938D05808173
:100BF00090915401892B8083FF91EF91BF91AF9128
:100C00009F918F917F916F915F914F913F912F9124
:100C10000F900FBE0F901F90189580917A008064FE
:100C200080937A0080917A0086FDFCCF80917800D5
:100C300090917900809371019093720184E162E058
:100C40000E946C0208950E94030485E160E00E9406
:100C50006C0208950E94050486E160E00E946C0227
:100C6000089580918D05882321F0109285001092BF
:100C700084008091750590917405891719F480930B
:100C8000750508958F5F803409F480E0E82FF0E067
:100C9000A3E0EE0FFF1FAA95E1F7ED58FC4FDF012F
:100CA00017969781913039F7809375051C920895B6
:100CB000CF93C0917405CF5FC03409F4C0E0809138
:100CC0007305C81749F510927101E0917305F0E0C2
:100CD00023E0EE0FFF1F2A95E1F7ED58FC4F8081CE
:100CE0008093720180917A0590917B0520914C014F
:100CF00002C0969587952A95E2F7809373018091BB
:100D0000730580937401809174058093750187E168
:100D100065E00E946C024FC080914B018F5F809311
:100D20004B01EC2FF0E080914B0193E0EE0FFF1FA1
:100D30009A95E1F7ED58FC4F808380917002818392
:100D40008091710282838091720283838091730209
:100D5000848380917402858380917502868380915B
:100D60007602878381E080937101E0917305F0E062
:100D7000B3E0EE0FFF1FBA95E1F7ED58FC4F80810D
:100D80008093720180917A0590917B0520914C01AE
:100D900002C0969587952A95E2F78093730180911A
:100DA000730580937401C093750187E165E00E942B
:100DB0006C02C0937405CF91089581E08093710116
:100DC000E0917305F0E033E0EE0FFF1F3A95E1F795
:100DD000ED58FC4F80818093720180917A0590914B
:100DE0007B0520914C0102C0969587952A95E2F7E4
:100DF00080937301809173058093740180917405D1
:100E0000809375018AE165E00E946C02089520914B
:100E10004C01309171028091700290E0830F911D1E
:100E2000982F8827A0E0B0E030E02C5F3F4F04C04F
:100E3000880F991FAA1FBB1F2A95D2F7809385059B
:100E400090938605A0938705B093880588E160E0BC
:100E50000E946C0208958731C9F0883138F48531D9
:100E600079F0863180F48431E1F407C08A31A1F051
:100E70008E31A9F08831A9F40CC00E940D060895A6
:100E80000E94230608950E942A0608950E9458068B
:100E900008950E94070708950E94DD0608950E94A4
:100EA00031060895F999FECF92BD81BDF89A992730
:100EB00080B50895262FF999FECF92BD81BDF89A8D
:100EC000019700B4021639F01FBA20BD0FB6F8948E
:100ED000FA9AF99A0FBE0895262FF999FECF1FBAF4
:100EE00092BD81BD20BD0FB6F894FA9AF99A0FBE53
:080EF00001960895F894FFCF6C
:100EF800687474703A2F2F74712E6D69742E65643E
:100F0800752F67657374616C742F3038362D3030E7
:100F1800302E707900687474703A2F2F7777772E97
:100F2800666162756E69742E636F6D2F766E2F30F1
:0E0F380038362D303035612E707900FF020002
:00000001FF
